:100000000C9434000C9451000C9451000C94510049
:100010000C9451000C9451000C9451000C9451001C
:100020000C9451000C9451000C9451000C9451000C
:100030000C9451000C9451000C9451000C945100FC
:100040000C9451000C9451000C94BD020C9451007E
:100050000C9451000C9477020C9451000C945100B4
:100060000C9451000C94510011241FBECFEFD8E026
:10007000DEBFCDBF11E0A0E0B1E0E4E1FAE002C0F4
:1000800005900D92AC30B107D9F721E0ACE0B1E0BA
:1000900001C01D92A531B207E1F70E944A010C94FC
:1000A00008050C940000ECE7F0E01082808180628B
:1000B0008083808180648083EAE7F0E01082808121
:1000C000886880838081876080838081806480836A
:1000D00008958AB18E7F8AB98AB182608AB9E0ECCC
:1000E000F0E01082808182608083E1ECF0E0108299
:1000F000808188698083E2ECF0E0108280818660F4
:1001000080838FEC90E09093C5008093C4000895A5
:1001100080FF04C09BB190619BB903C09BB19F7EDF
:100120009BB981FF04C09BB190629BB903C09BB196
:100130009F7D9BB982FF04C09BB190649BB903C0B3
:100140009BB19F7B9BB983FF04C09BB190689BB917
:1001500003C09BB19F779BB984FF04C095B19160A8
:1001600095B903C095B19E7F95B985FF04C095B13F
:10017000926095B903C095B19D7F95B986FF04C083
:1001800095B1946095B903C095B19B7F95B98823CB
:1001900024F485B1886085B9089585B1877F85B9D4
:1001A00008959BB19B7F9BB90E9488008BB18860AA
:1001B0008BB98FE79EE30197F1F700C000008BB188
:1001C000877F8BB908958AB18C6F8AB984B18F60AB
:1001D00084B915B81BB880E00E9488002FEF89EF22
:1001E00090E0215080409040E1F700C0000088E39B
:1001F0000E94D1008FE891E00197F1F700C0000064
:100200008CE00E94D1008FE891E00197F1F700C0E7
:10021000000086E00E94D1008FE891E00197F1F79D
:1002200000C0000081E00E94D10008959BB194605D
:100230009BB90E9488008BB188608BB98FE79EE3E1
:100240000197F1F700C000008BB1877F8BB908954B
:100250000F931F93CF93DF938C01C0E0D0E003C0D6
:100260000E9416012196F801EC0FFD1F808181117B
:10027000F7CFDF91CF911F910F910895613021F455
:1002800080580E94D1000895623019F480540E9471
:10029000D1000895CF93DF93CDB7DEB72F970FB678
:1002A000F894DEBF0FBECDBFF89417B80E94690066
:1002B0000E9453000E94E300789461E081E00E9474
:1002C0003E0180E091E00E94280161E087E00E9409
:1002D0003E0184E091E00E94280161E08DE00E94EF
:1002E0003E0188E091E00E9428010FEF10E02FEF1F
:1002F00030E080911001813021F080910F01813038
:10030000C1F71092100110920F0160911301262E77
:10031000312C2215330531F48091120190E0081739
:10032000190739F30091120110E070E080E090E0CD
:100330000E94E70320E030E040EA50E40E947304AA
:1003400020E030E04FE753E40E943D036B017C0165
:10035000B801012E000C880B990B0E94E70320E0E6
:1003600030E040EA50E40E94730420E030E04FE7C0
:1003700053E40E943D032B013C01C701B6010E94DA
:10038000AF034B015C01072E000C880B990B0E94F8
:10039000E7039B01AC01C701B6010E94D00220E037
:1003A00030E048EC52E40E9473040E94AF037F8760
:1003B0006E87C301B2010E94AF036B017C01072E5F
:1003C000000C880B990B0E94E7039B01AC01C30151
:1003D000B2010E94D00220E030E048EC52E40E94DA
:1003E00073040E94AF033B0162E080E00E943E0183
:1003F00080E3880D8E830F2EFEE29F2EF02D9F82CC
:100400000F2EFAE0AF2EB12CF02D8E859F85B50111
:100410000E94E004605D6887805D89870F2EF6E5A5
:100420008F2EF02D8A861B86CE0106960E9428010B
:1004300062E086E00E943E0180E38C0D89839A820F
:10044000C301B5010E94E004605D6B83805D8C8315
:100450008D821E82CE0101960E94280180910C019E
:10046000813061F5809114018B3289F480910D0106
:1004700090910E01019690930E0180930D01449787
:1004800021F410920E0110920D0110920C01809136
:1004900014018D3299F480910D0190910E01019714
:1004A00090930E0180930D01019631F484E190E068
:1004B00090930E0180930D0110920C0162E08CE08C
:1004C0000E943E0180910D0190910E016AE070E062
:1004D0000E94E004605D6B87805D8C8786E58D8778
:1004E0001E86CE010B960E942801910102CF1F9219
:1004F0000F920FB60F9211248F93EF93FF93EAE7B9
:10050000F0E080818F77808380911101811112C08A
:10051000ECE7F0E0808181608083809179008093B6
:100520001301809111018F5F8093110181E080930D
:10053000100110C0813071F4ECE7F0E080818E7F13
:10054000808380917900809312011092110181E0E3
:1005500080930F01EAE7F0E08081806880838081EA
:1005600080648083808180618083FF91EF918F918F
:100570000F900FBE0F901F9018951F920F920FB6FD
:100580000F9211248F9381E080930C018091C6001B
:10059000809314018F910F900FBE0F901F901895AC
:1005A0005058BB27AA270E94E8020C9439040E94E5
:1005B0002B0438F00E94320420F039F49F3F19F4E4
:1005C00026F40C9428040EF4E095E7FB0C94220426
:1005D000E92F0E944A0458F3BA1762077307840789
:1005E000950720F079F4A6F50C946C040EF4E095D0
:1005F0000B2EBA2FA02D0B01B90190010C01CA01DD
:10060000A0011124FF27591B99F0593F50F4503E87
:1006100068F11A16F040A22F232F342F4427585F79
:10062000F3CF469537952795A795F0405395C9F791
:100630007EF41F16BA0B620B730B840BBAF0915049
:10064000A1F0FF0FBB1F661F771F881FC2F70EC0E8
:10065000BA0F621F731F841F48F4879577956795BB
:10066000B795F7959E3F08F0B0CF9395880F08F0A7
:100670009927EE0F9795879508950E9451030C9442
:1006800039040E94320458F00E942B0440F029F4EF
:100690005F3F29F00C94220451110C946D040C94CA
:1006A00028040E944A0468F39923B1F3552391F377
:1006B000951B550BBB27AA2762177307840738F0D1
:1006C0009F5F5F4F220F331F441FAA1FA9F335D02E
:1006D0000E2E3AF0E0E832D091505040E695001CE2
:1006E000CAF72BD0FE2F29D0660F771F881FBB1F9C
:1006F000261737074807AB07B0E809F0BB0B802D7A
:10070000BF01FF2793585F4F3AF09E3F510578F0A5
:100710000C9422040C946D045F3FE4F3983ED4F3F0
:10072000869577956795B795F7959F5FC9F7880F79
:10073000911D9695879597F90895E1E0660F771FCB
:10074000881FBB1F621773078407BA0720F0621B5C
:10075000730B840BBA0BEE1F88F7E09508950E9487
:10076000B6036894B1110C946D0408950E9452046C
:1007700088F09F5798F0B92F9927B751B0F0E1F062
:10078000660F771F881F991F1AF0BA95C9F714C012
:10079000B13091F00E946C04B1E008950C946C04A7
:1007A000672F782F8827B85F39F0B93FCCF386954B
:1007B00077956795B395D9F73EF4909580957095A8
:1007C00061957F4F8F4F9F4F0895E89409C097FB25
:1007D0003EF490958095709561957F4F8F4F9F4F18
:1007E0009923A9F0F92F96E9BB279395F69587955C
:1007F00077956795B795F111F8CFFAF4BB0F11F41F
:1008000060FF1BC06F5F7F4F8F4F9F4F16C08823C5
:1008100011F096E911C0772321F09EE8872F762FFB
:1008200005C0662371F096E8862F70E060E02AF03C
:100830009A95660F771F881FDAF7880F9695879528
:1008400097F9089597F99F6780E870E060E0089550
:100850009FEF80EC089500240A94161617061806D8
:100860000906089500240A941216130614060506B4
:100870000895092E0394000C11F4882352F0BB0F45
:1008800040F4BF2B11F460FF04C06F5F7F4F8F4FA8
:100890009F4F089557FD9058440F551F59F05F3FE3
:1008A00071F04795880F97FB991F61F09F3F79F092
:1008B00087950895121613061406551FF2CF469514
:1008C000F1DF08C0161617061806991FF1CF869596
:1008D0007105610508940895E894BB27662777277A
:1008E000CB0197F908950E9486040C9439040E9464
:1008F0002B0438F00E94320420F0952311F00C9460
:1009000022040C94280411240C946D040E944A04BF
:1009100070F3959FC1F3950F50E0551F629FF00152
:10092000729FBB27F00DB11D639FAA27F00DB11D6B
:10093000AA1F649F6627B00DA11D661F829F2227F4
:10094000B00DA11D621F739FB00DA11D621F839F7B
:10095000A00D611D221F749F3327A00D611D231F51
:10096000849F600D211D822F762F6A2F11249F579F
:1009700050409AF0F1F088234AF0EE0FFF1FBB1FA2
:10098000661F771F881F91505040A9F79E3F510561
:1009900080F00C9422040C946D045F3FE4F3983EC5
:1009A000D4F3869577956795B795F795E7959F5F0B
:1009B000C1F7FE2B880F911D9695879597F908959D
:1009C00097FB072E16F4009407D077FD09D00E94FC
:1009D000F40407FC05D03EF4909581959F4F08954F
:1009E000709561957F4F0895AA1BBB1B51E107C00D
:1009F000AA1FBB1FA617B70710F0A61BB70B881FAF
:100A0000991F5A95A9F780959095BC01CD0108953D
:040A1000F894FFCF88
:0C0A140053313A0053323A0053333A0099
:00000001FF
