S00E00006C6162325F312E7372656325
S11300000C9434000C943E000C943E000C943E007E
S11300100C943E000C943E000C943E000C943E0064
S11300200C943E000C943E000C943E000C943E0054
S11300300C943E000C943E000C943E000C943E0044
S11300400C943E000C943E000C943E000C943E0034
S11300500C943E000C943E000C943E000C943E0024
S11300600C943E000C943E0011241FBECFEFD8E048
S1130070DEBFCDBF0E94E0000C94F5000C9400009C
S113008080FF04C09BB190619BB903C09BB19F7E6C
S11300909BB981FF04C09BB190629BB903C09BB123
S11300A09F7D9BB982FF04C09BB190649BB903C040
S11300B09BB19F7B9BB983FF04C09BB190689BB9A4
S11300C003C09BB19F779BB984FF04C095B1916035
S11300D095B903C095B19E7F95B985FF04C095B1CC
S11300E0926095B903C095B19D7F95B986FF04C010
S11300F095B1946095B903C095B19B7F95B9882358
S113010024F485B1886085B9089585B1877F85B960
S113011008959BB19B7F9BB90E9440008BB188607E
S11301208BB98FE79EE30197F1F700C000008BB114
S1130130877F8BB908958AB18C6F8AB984B18F6037
S113014084B915B81BB880E00E9440002FEF89EFF6
S113015090E0215080409040E1F700C0000088E327
S11301600E9489008FE891E00197F1F700C0000038
S11301708CE00E9489008FE891E00197F1F700C0BC
S1130180000086E00E9489008FE891E00197F1F772
S113019000C0000081E00E94890008959BB1946032
S11301A09BB90E9440008BB188608BB98FE79EE3B6
S11301B00197F1F700C000008BB1877F8BB90895D8
S11301C00E949B0088E40E94CE008FE40E94CE002F
S11301D08CE40E94CE0081E40E94CE0082E30E945F
S11101E0CE0083E30E94CE00FFCFF894FFCF41
S9030000FC
