S00E00006C6162325F312E7372656325
S11300000C9434000C9451000C9451000C94510045
S11300100C9451000C9451000C9451000C94510018
S11300200C9451000C9451000C9451000C94510008
S11300300C9451000C9451000C9451000C945100F8
S11300400C9451000C9451000C9451000C945100E8
S11300500C9451000C9441020C9451000C945100E6
S11300600C9451000C94510011241FBECFEFD8E022
S1130070DEBFCDBF11E0A0E0B1E0E4E3F9E002C0EF
S113008005900D92AC30B107D9F721E0ACE0B1E0B6
S113009001C01D92A131B207E1F70E942B010C941B
S11300A098040C940000ACE7B0E01C92EAE7F0E09E
S11300B010828C9180648C938C9180628C931082DA
S11300C080818868808380818760808310927B0030
S11300D0089580FF04C09BB190619BB903C09BB19C
S11300E09F7E9BB981FF04C09BB190629BB903C002
S11300F09BB19F7D9BB982FF04C09BB190649BB967
S113010003C09BB19F7B9BB983FF04C09BB19068E4
S11301109BB903C09BB19F779BB984FF04C095B181
S1130120916095B903C095B19E7F95B985FF04C0D0
S113013095B1926095B903C095B19D7F95B986FF3D
S113014004C095B1946095B903C095B19B7F95B9EE
S1130150882324F485B1886085B9089585B1877FA3
S113016085B908959BB19B7F9BB90E9469008BB1AF
S113017088608BB98FE79EE30197F1F700C0000018
S11301808BB1877F8BB908958AB18C6F8AB984B19A
S11301908F6084B915B81BB880E00E9469002FEF06
S11301A089EF90E0215080409040E1F700C00000CA
S11301B088E30E94B2008FE891E00197F1F700C054
S11301C000008CE00E94B2008FE891E00197F1F703
S11301D000C0000086E00E94B2008FE891E0019721
S11301E0F1F700C0000081E00E94B20008959BB1C5
S11301F094609BB90E9469008BB188608BB98FE7CA
S11302009EE30197F1F700C000008BB1877F8BB9A3
S113021008950F931F93CF93DF938C01C0E0D0E038
S113022003C00E94F7002196F801EC0FFD1F8081A6
S11302308111F7CFDF91CF911F910F910895613014
S113024021F480580E94B2000895623019F4805459
S11302500E94B2000895CF93DF93CDB7DEB72E97F7
S11302600FB6F894DEBF0FBECDBFF8940E94C40051
S11302700E945300EAE7F0E08081806480837894F0
S113028061E081E00E941F0180E091E00E94090189
S113029061E087E00E941F0184E091E00E9409016F
S11302A061E08DE00E941F0188E091E00E94090155
S11302B0EE24EA94F12C2FEF30E080910D0181308F
S11302C021F080910C018130C1F710920D01109240
S11302D00C0160911001C62ED12C2C153D0531F472
S11302E080910F0190E0E816F90639F3E0900F01D0
S11302F0F12C70E080E090E00E94900320E030E078
S113030040EA50E40E941C0420E030E04FE753E44C
S11303100E94E6024B015C01B7010F2C000C880B14
S1130320990B0E94900320E030E040EA50E40E94E0
S11303301C0420E030E04FE753E40E94E6026B87A0
S11303407C878D879E87C501B4010E945803762E51
S1130350672D80E090E00E948E039B01AC01C501F3
S1130360B4010E94790220E030E048EC52E40E949B
S11303701C040E945803662EA62EB72E6B857C851E
S11303808D859E850E945803862E682D80E090E01E
S11303900E948E039B01AC016B857C858D859E85B7
S11303A00E94790220E030E048EC52E40E941C04F0
S11303B00E945803962E062F172F62E080E00E94B9
S11303C01F0180E3870D8E830F2EFEE27F2EF02D1A
S11303D07F8280E3860D88879501ADECBCEC0E949A
S11303E089049695879596958795969587959C010A
S11303F0220F331F880F991F880F991F880F991F89
S1130400820F931F9501281B390BC901805D8987D1
S11304100F2EF6E5BF2EF02DBA861B86CE0106966A
S11304200E94090162E086E00E941F0180E3880DBA
S113043089837A8280E3890D8B839801ADECBCECCF
S11304400E948904969587959695879596958795A4
S11304509C01220F331F880F991F880F991F880F43
S1130460991F820F931F9801281B390BC901805DC6
S11304708C83BD821E82CE0101960E9409019601E1
S11304801CCF1F920F920FB60F9211248F93EF93EC
S1130490FF9380910E01811110C0ECE7F0E010820F
S11304A0808186608083809179008093100181E04F
S11304B080930E0180930D010FC0ECE7F0E01082F1
S11304C08081876080838091790080930F011092EE
S11304D00E0181E080930C01EAE7F0E08081806105
S11304E08083FF91EF918F910F900FBE0F901F901B
S11304F018955058BB27AA270E9491020C94E20336
S11305000E94D40338F00E94DB0320F039F49F3FAB
S113051019F426F40C94D1030EF4E095E7FB0C9443
S1130520CB03E92F0E94F30358F3BA17620773074A
S11305308407950720F079F4A6F50C9415040EF4BD
S1130540E0950B2EBA2FA02D0B01B90190010C01DF
S1130550CA01A0011124FF27591B99F0593F50F4F7
S1130560503E68F11A16F040A22F232F342F44274F
S1130570585FF3CF469537952795A795F040539547
S1130580C9F77EF41F16BA0B620B730B840BBAF017
S11305909150A1F0FF0FBB1F661F771F881FC2F782
S11305A00EC0BA0F621F731F841F48F48795779596
S11305B06795B795F7959E3F08F0B0CF9395880F50
S11305C008F09927EE0F9795879508950E94FA02EF
S11305D00C94E2030E94DB0358F00E94D40340F021
S11305E029F45F3F29F00C94CB0351110C941604A9
S11305F00C94D1030E94F30368F39923B1F35523B8
S113060091F3951B550BBB27AA2762177307840721
S113061038F09F5F5F4F220F331F441FAA1FA9F3B7
S113062035D00E2E3AF0E0E832D091505040E695A5
S1130630001CCAF72BD0FE2F29D0660F771F881F06
S1130640BB1F261737074807AB07B0E809F0BB0BF9
S1130650802DBF01FF2793585F4F3AF09E3F51050D
S113066078F00C94CB030C9416045F3FE4F3983EAB
S1130670D4F3869577956795B795F7959F5FC9F7F6
S1130680880F911D9695879597F90895E1E0660F77
S1130690771F881FBB1F621773078407BA0720F0F0
S11306A0621B730B840BBA0BEE1F88F7E095089559
S11306B00E945F036894B1110C94160408950E947B
S11306C0FB0388F09F5798F0B92F9927B751B0F0E2
S11306D0E1F0660F771F881F991F1AF0BA95C9F7C2
S11306E014C0B13091F00E941504B1E008950C9447
S11306F01504672F782F8827B85F39F0B93FCCF3FA
S1130700869577956795B395D9F73EF4909580953E
S1130710709561957F4F8F4F9F4F0895E89409C05E
S113072097FB3EF490958095709561957F4F8F4F20
S11307309F4F9923A9F0F92F96E9BB279395F69536
S1130740879577956795B795F111F8CFFAF4BB0FB4
S113075011F460FF1BC06F5F7F4F8F4F9F4F16C018
S1130760882311F096E911C0772321F09EE8872FA2
S1130770762F05C0662371F096E8862F70E060E05E
S11307802AF09A95660F771F881FDAF7880F9695D7
S1130790879597F9089597F99F6780E870E060E07E
S11307A008959FEF80EC089500240A941616170606
S11307B018060906089500240A941216130614064E
S11307C005060895092E0394000C11F4882352F0B1
S11307D0BB0F40F4BF2B11F460FF04C06F5F7F4F69
S11307E08F4F9F4F089557FD9058440F551F59F050
S11307F05F3F71F04795880F97FB991F61F09F3F0A
S113080079F087950895121613061406551FF2CF32
S11308104695F1DF08C0161617061806991FF1CF82
S113082086957105610508940895E894BB276627A9
S11308307727CB0197F908950E942F040C94E203C3
S11308400E94D40338F00E94DB0320F0952311F0BA
S11308500C94CB030C94D10311240C9416040E9421
S1130860F30370F3959FC1F3950F50E0551F629FFA
S1130870F001729FBB27F00DB11D639FAA27F00DF5
S1130880B11DAA1F649F6627B00DA11D661F829F1C
S11308902227B00DA11D621F739FB00DA11D621F01
S11308A0839FA00D611D221F749F3327A00D611D1E
S11308B0231F849F600D211D822F762F6A2F112400
S11308C09F5750409AF0F1F088234AF0EE0FFF1F33
S11308D0BB1F661F771F881F91505040A9F79E3F8A
S11308E0510580F00C94CB030C9416045F3FE4F3A1
S11308F0983ED4F3869577956795B795F795E795E0
S11309009F5FC1F7FE2B880F911D9695879597F9E8
S11309100895A29FB001B39FC001A39F700D811DD4
S11309201124911DB29F700D811D1124911D0895F4
S1070930F894FFCF65
S10F093453313A0053323A0053333A0076
S9030000FC
